S31508000000A09600205D0200086B4900080D3C000818
S3150800001069490008450C00088958000800000000D6
S315080000200000000000000000000000009D0100081C
S31508000030C510000800000000F9010008E54F000897
S31508000040770200087702000877020008770200089E
S315080000507702000877020008C71000087702000830
S3150800006077020008CD100008D310000877020008B0
S31508000070F10C000877020008FD0C0008770200085A
S31508000080770200087702000877020008910C00083A
S31508000090850C00087702000877020008D9100008C6
S315080000A0C1500008DD5000087702000877020008F2
S315080000B077020008F950000877020008770200085E
S315080000C0770200087702000877020008C14D000889
S315080000D07702000819560008770200082556000816
S315080000E07702000877020008770200080551000821
S315080000F01151000877020008770200087702000805
S3150800010077020008770200087702000877020008DD
S3150800011077020008770200087702000877020008CD
S3150800012077020008090D0008150D00087702000877
S31508000130770200087702000877020008E50C000835
S31508000140D90C000877020008770200087702000831
S31508000150B90D0008C50D0008D10D00087D57000827
S31508000160770200087702000877020008770200087D
S3150800017077020008770200087702000800000000EE
S315080001807702000877020008DFF80CD000F062FB5F
S31508000190004800475D680008A09600202C4B1968A7
S315080001A00868B0E8F04F80F30988BFF36F8F4FF007
S315080001B0000080F3118870470000000008480068B6
S315080001C0006880F308884FF0000080F3148862B650
S315080001D061B6BFF34F8FBFF36F8F00DF00BF00BF5D
S315080001E008ED00E0DFF80C00016841F470010160D9
S315080001F0704700BF88ED00E0EFF30980BFF36F8F0B
S31508000200134B1A681EF0100F08BF20ED108A20E95C
S31508000210F04F106009B44FF0500080F31188BFF317
S315080002204F8FBFF36F8F07F035FC4FF0000080F358
S31508000230118809BC19680868B0E8F04F1EF0100F5D
S3150800024008BFB0EC108A80F30988BFF36F8F704738
S3150800025068000020EFF305807047000006488047D5
S3150800026006480047FEE7FEE7FEE7FEE7FEE7FEE78D
S31508000270FEE7FEE7FEE7FEE7A5500008890100084D
S315080002802DE9F05F0546002092469B4688460646BD
S31508000290814640241BE0284641464746224600F050
S315080002A022FA53465A46C01A914110D311461846A7
S315080002B0224600F009FA2D1A67EB01084F46224636
S315080002C00120002100F000FA17EB00094E41201E1C
S315080002D0A4F10104DFDC484631462A464346BDE818
S315080002E0F09F40EA01039B0703D009E008C9121FE3
S315080002F008C0042AFAD203E011F8013B00F8013BD2
S31508000300521EF9D27047D2B201E000F8012B491EFD
S31508000310FBD270470022F6E710B513460A46044694
S315080003201946FFF7F0FF204610BD421C10F8011BC6
S315080003300029FBD1801A70472DE9FE4F804681EAD5
S315080003400300C00F0C46009021F0004123F0004541
S31508000350B8EB0200A94105D24046214690461C4604
S315080003600B46024623F00040104347D0270DC7F33B
S315080003700A00C3F30A510290401A019040286BDA2A
S31508000380C3F3130040F4801B0098924620B1002363
S31508000390D2EB030A63EB0B0B01985946C0F14002F6
S315080003A0504600F091F906460D4650465946019AC0
S315080003B000F0A9F910EB08006141002487EA115200
S315080003C084EAE7731A4340D0009A62B3019A012A75
S315080003D04FEA075215DC001B61EB02014FF00042A1
S315080003E002EA0752CDE90042001C41F58011324667
S315080003F02B4600F0E0F903B0BDE8F08F40462146F1
S31508000400F9E7001B61EB0201001C41F58013001897
S315080004105B412018A2F5001747EB030140EAD570A7
S31508000420B6196D4111E06D084FEA360645EAC07502
S315080004304FEA0752001B61EB0201001C41F58011CF
S3150800044049084FEA30000019514132462B4603B09D
S31508000450BDE8F04F00F0A0B9009801224000002343
S31508000460D0EB020263EBE073009821464FEAE07492
S31508000470B8EB000061EB0401E9E783F000435BE7B2
S3150800048081F0004158E72DE9FE4F81EA030404F0A4
S31508000490004421F0004100944FF0000B23F0004384
S315080004A050EA01045ED052EA03045BD0C3F30A544F
S315080004B0C1F30A552C44A4F2F3340194A0FB025468
S315080004C0C1F3130141F48011C3F3130343F48013FA
S315080004D001FB024400FB034E840A970A44EA81544E
S315080004E047EA8357A4FB076802958D0A05FB07852B
S315080004F04FEA932C04FB0C542705029D4FEA065835
S3150800050047EA1637B5EB08056EEB070C870E920E11
S3150800051047EA811742EA8312A7FB0201B6EB0B01F1
S3150800052064EB00042B0D43EA0C335E1844EB1C50B5
S31508000530DA465146E7FB0201C5F313044FEA0B33CB
S3150800054043EA14534FEA0432019C43EA0603A4F132
S315080005500C040294009CCDE900B400F02CF903B019
S31508000560BDE8F08F00200146F9E72DE9F04D81EA54
S31508000570030404F0004B21F0004514464FF0000A2E
S3150800058023F0004150EA050220D054EA01021DD0AA
S31508000590C5F30A570246C5F31303C1F31300C1F3A3
S315080005A00A5640F4801543F48013A7EB0608101B7F
S315080005B0D64608F2FD3873EB050002D308F10108A8
S315080005C001E092185B41B8F1000F03DA00200146FA
S315080005D0BDE8F08D00204FF48011064684460EE0F3
S315080005E0171B73EB050705D3121B63EB05030643BD
S315080005F04CEA010C49084FEA300092185B4150EA70
S315080006000107EDD152EA030012D082EA040083EA18
S315080006100501084305D0101BAB4106D20122002371
S3150800062006E000224FF0004302E06FF0010253108B
S315080006301AEB06004CEB085110EB0A0041EB0B01D4
S31508000640BDE8F04D00F0A8B80EB5C10F80EAE0701D
S315080006500844CA07002140F233438DE80E000A46D3
S315080006600B4600F0A8F803B000BD00F0004230F0D9
S3150800067000400AD0C10D01F56071C0F3160042EAC8
S315080006800151C208400711437047002001467047D0
S3150800069001F0004330B421F0004150EA010206D0CF
S315080006A00A0DA2F56072C1F31301002A02DC30BC00
S315080006B000207047440F44EAC104C100E01830BC6A
S315080006C000EBC25000F031B8202A04DB203A00FAC9
S315080006D002F1002070479140C2F1200320FA03F38B
S315080006E0194390407047202A04DB203A21FA02F089
S315080006F00021704721FA02F3D040C2F1200291404E
S31508000700084319467047202A06DBCB17203A41FAD8
S3150800071002F043EAE07306E041FA02F3D040C2F180
S31508000720200291400843194670470029A8BF704720
S31508000730401C490008BF20F00100704710B4B0FA09
S3150800074080FC00FA0CF050EA010404BF10BC7047A4
S3150800075049B1CCF1200421FA04F411FA0CF118BFBE
S31508000760012121430843A3EB0C01CB1D4FEA00618D
S315080007704FEA102042BF002010BC704700EBC35060
S3150800078010440029A4BF10BC7047401C490008BF8C
S3150800079020F0010010BC704710B5141E73F1000458
S315080007A008DA401C41F1000192185B411A4301D155
S315080007B020F0010010BD2DE9F04D92469B4611B17F
S315080007C0B1FA81F202E0B0FA80F220329046FFF7E1
S315080007D07BFF04460F4640EA0A0041EA0B015346EE
S315080007E05A46084313D0114653EA010019D0C8F1F6
S315080007F040025046FFF777FF05460E4650465946D3
S315080008004246FFF761FF084305D0012004E0204671
S315080008103946BDE8F08D0020054346EAE0762C43CC
S3150800082037430A986305E40AA0EB08000022FD0A8C
S3150800083044EA47540A3002D500200146E9E7010593
S3150800084010196941DDE9084500196941BDE8F04D0F
S31508000850A2E70000064C074D06E0E06840F00103F9
S3150800086094E8070098471034AC42F6D3FFF790FC9B
S315080008707C8900089C89000870B58C1810F8015B03
S3150800088015F0070301D110F8013B2A1106D110F81B
S31508000890012B03E010F8016B01F8016B5B1EF9D11F
S315080008A02B0705D40023521E0DD401F8013BFAE7A5
S315080008B010F8013BCB1A921C03E013F8015B01F810
S315080008C0015B521EF9D5A142D8D3002070BD0000A5
S315080008D0B7EE000A80ED000A9FED040A80ED010AD2
S315080008E080ED020A80ED030A704700000000000050
S315080008F001221021014801F0C5BB0000000002409A
S3150800090000221021014801F0BDBB00000000024092
S315080009107047000001221146014801F0B3BB0000F0
S315080009200004024000220121014801F0ABBB00008F
S315080009300004024030B5437804781B021BB22343F7
S3150800094000EE103A194CB8EEC00AD4ED010A20EEB2
S31508000950200A81ED000AC37885781B021BB22B4357
S3150800096000EE103AD4ED010AB8EEC00A20EE200ACD
S3150800097081ED010A437904791B021BB2234300EE79
S31508000980103AB8EEC00A20EE200ADFED090A81ED1A
S31508000990020AD0F8060020F07F4000EE100AB8EEF2
S315080009A0400A20EE200A82ED000A30BD0000002031
S315080009B000401C42704705F09BBF05F09DBC000037
S315080009C010B542780378120212B21A4300EE102AC2
S315080009D0124BB8EEC00AD3ED020A20EE200A81EDCA
S315080009E0000AC2788478120212B2224300EE102A54
S315080009F0D3ED020AB8EEC00A20EE200A81ED010AFC
S31508000A0042790079120212B2024300EE102AB8EEB9
S31508000A10C00A20EE200A81ED020A10BD000000205F
S31508000A2010B5FFF775FFFFF7C5FF05F001FA08B126
S31508000A30802402E005F068F9044605F0D1FB10B100
S31508000A4044F0400010BD05F05DFB204310BD0000DA
S31508000A502DE9FC410746002016460D4600900190F8
S31508000A60FFF74EFF922000F0BDF8062269461220D5
S31508000A7000F09AF8FFF73CFF9DF801009DF800107A
S31508000A80000200B2084300EE100A464CB8EEC00A4F
S31508000A90D4ED010A20EE200A85ED000A9DF8030030
S31508000AA09DF80210000200B2084300EE100AD4EDC9
S31508000AB0010AB8EEC00A20EE200A85ED010A9DF863
S31508000AC005009DF80410000200B2084300EE100A63
S31508000AD0B8EEC00A20EE200A85ED020AFFF722FFCB
S31508000AE008226946002000F05FF8FFF713FF9DF81B
S31508000AF000000F2830D19DF803009DF8021000026F
S31508000B0000B2084300EE100AD4ED020AB8EEC00A95
S31508000B1020EE200A87ED000A9DF805009DF80410CE
S31508000B20000200B2084300EE100AD4ED020AB8EE3D
S31508000B30C00A20EE200A87ED010A9DF807009DF8F5
S31508000B400610000200B2084300EE100AB8EEC00A0A
S31508000B5020EE200A87ED020AFFF7D2FEA22000F057
S31508000B6041F802226946222000F01EF8FFF7C0FE6F
S31508000B709DF800009DF80110C00040EA5110B0F53C
S31508000B80806F01DBA0F5006000EE100AB4EE001AD3
S31508000B90F8EEC00AB3EE070A00EE810A86ED000AEF
S31508000BA0BDE8FC810000002070B514460D4640F0F3
S31508000BB0800000F017F806E0552000F013F8641ED0
S31508000BC005F8010BE4B2002CF6D170BD10B50C4641
S31508000BD040F0800000F006F8552000F003F8207079
S31508000BE010BD000001B582B04FF47A700090012361
S31508000BF001AA02A9024802F04FF89DF804000EBDAA
S31508000C00486B002002784078D20042EA5010B0F5CE
S31508000C10806F01DBA0F5006000EE100AB4EE001A42
S31508000C20F8EEC00AB3EE070A00EE810A81ED000A63
S31508000C30704710B50C46FFF7D5FF2046BDE81040B3
S31508000C40FFF7D0BFFEE7000000B58BB000200121FA
S31508000C50CDE906010590009001900290039004905A
S31508000C600E20CDE908106946054800F02BFB022145
S31508000C70034800F0B1FA024800F002FF0BB000BDCD
S31508000C80FC630020014800F018BC0000FC6300204B
S31508000C90014800F012BC0000FC63002000B58BB0D0
S31508000CA001220E2100200792CDE905100390049039
S31508000CB0CDE908210090019002906946054800F0A8
S31508000CC001FB0221034800F087FA024800F0D8FE2B
S31508000CD00BB000BD24640020014800F0EEBB000004
S31508000CE024640020014800F0E8BB000024640020CA
S31508000CF0014800F053BF00009C6F0020014800F037
S31508000D004DBF0000FC6F0020014800F047BF0000FF
S31508000D105C70002070B523480068800240D52149E0
S31508000D204FF0F460083108601F4C207880070CD516
S31508000D30207820F002002070207840F0040020700F
S31508000D4001221146194801F09DF96078184D80076F
S31508000D500CD5607820F002006070607840F00400DE
S31508000D60607001221021284601F08CF9A0788007CE
S31508000D700CD5A07820F00200A070A07840F00400FE
S31508000D80A07001221021284601F07CF905F08EFC9E
S31508000D902078400704D50748016841F00101016041
S31508000DA070BD0000006402401801002000040240E3
S31508000DB000000240103C0140014800F0EFBE000070
S31508000DC0DC6E0020014800F0E9BE0000BC7000207F
S31508000DD0014800F0E3BE00003C6F00202DE9F04F0B
S31508000DE085680024099E802D18D0894DC563894DD4
S31508000DF0456490F83450012D15D0012580F83450FB
S31508000E0090F83550012D10D0002180F834100224B6
S31508000E10002180F834102046BDE8F08F4FF4807129
S31508000E2041650120F8E70220F6E7022580F83550EB
S31508000E300025456505682F6847F480272F600568F3
S31508000E402B6103685E608368402B03682AD099602B
S31508000E500168CA60714D704E704FDFF8BC81DFF8CB
S31508000E60B891DFF8B8A1DFF8B4B1EA14DFF8A8E161
S31508000E700168183630379302A9F148090AF1600A61
S31508000E800BF1180BAEF1300E4FF0006C41452DD921
S31508000E90A94205D0494503D0514501D0B14205D1F3
S31508000EA0202220E09A600268D160D3E759451AD01B
S31508000EB0714518D0594D7835A94214D0564D30355C
S31508000EC0A94210D0B9420BD0534A183A914207D0DA
S31508000ED0524A9032914203D04F4A4832914201D148
S31508000EE01A4600E062464C494C392EE0DFF82C8160
S31508000EF008F1A80841452AD9A94205D0494503D091
S31508000F00514501D0B14201D120221CE059451AD0E1
S31508000F10714518D0414D7835A94214D03E4D30352B
S31508000F20A94210D0B9420BD03B4A183A914207D091
S31508000F303A4A9032914203D0374A4832914201D117
S31508000F401A4600E06246344950390A605AE0DFF82A
S31508000F50CC8008F1480841452AD9A94205D0494517
S31508000F6003D0514501D0B14201D120221CE0594598
S31508000F701AD0714518D0294D7835A94214D0264D76
S31508000F803035A94210D0B9420BD0234A183A9142BB
S31508000F9007D0224A9032914203D01F4A48329142E2
S31508000FA001D11A4600E062461C491039CA6029E098
S31508000FB0A94205D0494503D0514501D0B14201D1D6
S31508000FC020221CE059451AD0714518D0134D7835A2
S31508000FD0A94214D0104D3035A94210D0B9420BD0D1
S31508000FE00D4A183A914207D00C4A9032914203D0E2
S31508000FF0094A4832914201D11A4600E06246074939
S3150800100010398A6001680A6842F001020A60FFE640
S315080010109D630008E96300085864024010600240B6
S3150800102001681823CAB2103AB2FBF3F2054B6FF304
S315080010300901032A9B5CC36500D9091D8165084619
S31508001040704700008685000810B5014600208B69A8
S315080010508A6A4FF0C07453B1B3F5005F15D072B108
S31508001060012A0CD0022A0AD0032A09D104E01AB1AF
S31508001070012A06D0022A03D1C96AC90100D501206E
S3150800108010BDC96AA142FAD010BD002AF7D0012ABC
S31508001090F2D0022AF3D0032AF3D010BD01680A68F9
S315080010A0D20604D5C968C90601D506F02FBA704715
S315080010B001680A68D20604D5C968C90601D506F0CA
S315080010C025BA70477047012000F0D8BE082000F006
S315080010D0D5BE102000F0D2BE10B5202000F0CEFEFE
S315080010E0402000F0CBFEBDE81040802000F0C6BED0
S315080010F072B6FEE710B558B1084C491E0BD310F866
S31508001100013B5340DBB234F8133083EA1222F4E78A
S315080011104FF6FF7010BD104610BD0000348700085A
S3150800112010B5054C04E000BF10F8013B5340E25CE3
S31508001130491EF9D2104610BD3486000810B51B4862
S315080011409FED190AF2EE000A2DED028B00F10C0153
S3150800115080ED030A9FED160A9FED188A80ED040AB2
S315080011609FED140A80ED050AC0ED060A80ED070A10
S3150800117080ED080A9FED100AF0EE480A80ED2C0A69
S31508001180B0EE480A243005F04DFCF0EE480AB0EE01
S31508001190480A0649BDEC028B1831BDE8104001F13A
S315080011A0500005F03FBC00000000A042CC730020B0
S315080011B0CDCCCC3D0000000000000C430060EA46A0
S315080011C04FF4FA5005F094FBFFF7B8FF03F090FCD4
S315080011D0012005F08DFBF9E790F82020012A07D0B9
S315080011E0022A05D0416A41F48021416201207047F4
S315080011F0006842690A43426100207047F0B590F8DA
S3150800120020500468A468012D05D0022D03D0416A38
S3150800121041F4802153E014F0406F01D1E5004BD52D
S31508001220C4F30164022C03D9416A41F4000146E083
S315080012300125A5401D608D684FF4C0739DB1CE6829
S3150800124035434E6845EAC605066803EB0417F551AB
S315080012504FF4C275076805EB04150E697E51097DC2
S31508001260012905D009E00E88CD6845EA4655EBE721
S3150800127001684E5946F480764E511179D2F80550D8
S315080012804FF4C67641EA0525016806EB04168D512A
S315080012901178D2F801204FF4C47541EA0221026898
S315080012A005EB04155151006803EB0411425842F04E
S315080012B0010242500020F0BD416A41F4001141622A
S315080012C00120F0BD10B590F82020012A07D0022A87
S315080012D005D0416A41F480214162012010BD3B4896
S315080012E0D0F8002242F00102C0F80022D0F800220D
S315080012F022F47C52C0F80022D0F800224B6A42EA57
S315080013000322C0F800220A7D02F01F0301229A4038
S31508001310D0F81C329343C0F81C32CB69B3B9D0F865
S315080013200C329343C0F80C328C894B6864F31F4324
S315080013304C6900EBC404C4F840320C890B6864F3AA
S315080013401F434C6900EBC404C4F84432CB69012B33
S3150800135016D1D0F80C321343C0F80C320C884B68FF
S3150800136064F31F434C6900EBC404C4F840320C898B
S31508001370CB6864F31F434C6900EBC404C4F84432D9
S315080013808B69002BD0F804320ED01343C0F8043210
S315080013900B69002BD0F8143208D01343C0F8143266
S315080013A0096A012904D008E09343EFE79343F5E778
S315080013B0D0F81C121143C0F81C12D0F8001221F004
S315080013C00101C0F80012002010BD000000640040B2
S315080013D0704730B590F82040012C05D0022C03D078
S315080013E0416A41F480215DE00468002955D02469EA
S315080013F0A40754D04FF4D874056804EB01142D598A
S3150800140015F00405956005682D594ED0ED08556010
S3150800141005682C5904F00204D4604FF4DA740568A0
S3150800142004EB01142D5905F00F05156105682D59B2
S31508001430C5F30725956105682C59240C54614FF4AA
S31508001440DC72046802EB0112A4581C700468A458E4
S31508001450240A5C700468A458240C9C700468A2587A
S31508001460120EDA704FF4DE72046802EB0112A45809
S315080014701C710468A458240A5C710468A458240CD6
S315080014809C710468A258120EDA71006881B101696C
S3150800149041F020010161002030BDE468A8E7416AF7
S315080014A041F400114162012030BD6D0D1560AFE7B2
S315080014B0C16841F02001C160EDE72DE9F05F0546FE
S315080014C0006800244669D0F804908768D0F80CB004
S315080014D0D0F810A0D0F81880F10748D0F90714D032
S315080014E001218160B80703D5284600F0F6FA0CE01A
S315080014F0780702D54FF4006407E0380702D54FF4A1
S31508001500805402E0284600F0E7FAF80516D529685F
S315080015104FF480708860B80503D5284600F0DFFAD6
S315080015200CE0780502D544F4005407E0380502D5E6
S3150800153044F4804402E0284600F0D0FAF80316D5B1
S3150800154029684FF480308860B80303D5284600F030
S31508001550C8FA0CE0780302D544F4004407E03803DF
S3150800156002D544F4803402E0284600F0B9FA300780
S3150800157007D55FEACB6004D52968102044F40074C7
S31508001580C86070074FF0080707D55FEA0B7004D5E7
S315080015902868C760284600F0A9F9B00706D5286864
S315080015A0C068800702D0284600F0A2F9700607D561
S315080015B05FEACA6004D52968102044F4806408618B
S315080015C0B00607D55FEA0A7004D528680761284679
S315080015D000F052FAF00606D528680069800702D09E
S315080015E0284600F04AFAB00308D55FEAC96005D56F
S315080015F0296810204860284600F040FAF00307D50D
S315080016005FEA097004D528684760284600F06AFA38
S31508001610300446D55FEA497040D5F00504D55FEA3F
S31508001620C87001D044F00104B00504D55FEA88709B
S3150800163001D544F00204700504D55FEA487001D567
S3150800164044F00404300529D518F0700F26D008F0A8
S315080016507000402815D006DC102809D020280AD0AA
S31508001660302816D10AE050280ED0602811D10EE095
S3150800167044F008040DE044F010040AE044F02004A5
S3150800168007E044F0400404E044F0800401E044F438
S3150800169080742868816921F07001816129680420B5
S315080016A04860002C05D0686A204368622846FFF720
S315080016B08FFEBDE8F09F70B5040003D094F82000B3
S315080016C010B104E0012070BD204600F081F82068C2
S315080016D0016841F00101016000F0DAFC05460526C3
S315080016E004E000F0D5FC401B0A2811D820684068A1
S315080016F0C007F6D02068016821F00201016000F0F9
S31508001700C7FC05460BE000F0C3FC401B0A2806D9B7
S31508001710606A40F40030606284F82060D2E720688E
S3150800172040688007EFD4207E0128206801683DD0F4
S3150800173021F080010160607E01282068016838D0A8
S3150800174021F040010160A07E01282068016833D09D
S3150800175021F020010160E07E0128206801682ED072
S3150800176041F010010160207F01282068016829D016
S3150800177021F008010160607F01282068016824D0F3
S3150800178021F004010160D4E902010843D4E90412F6
S31508001790114308436168491E08432168C86100204F
S315080017A06062012084F82000002070BD41F08001AD
S315080017B0C0E741F04001C5E741F02001CAE721F042
S315080017C01001CFE741F00801D4E741F00401D9E759
S315080017D0F0B587B0044614216846FEF79BFD3E4BDC
S315080017E03E48DFF8F0E01968D4F800C03B4A032504
S315080017F00226092710300024491CF4452AD119600D
S31508001800012907D1016841F000710160006800F004
S3150800181000700590106840F0080010601068CDE967
S31508001820005600F00800CDE9047069462C48CDE959
S31508001830024500F02FFB00220521132000F0D4FDFD
S31508001840132000F0C3FD00220521142000F0CCFD72
S3150800185014203AE0DFF88CE0F44538D1D0F800C01F
S315080018604CF0806CC0F800C0D0F800C001290CF01C
S31508001870806CCDF814C0196007D1016841F0007179
S315080018800160006800F000700590106840F00200E2
S315080018901060106802AB00F0020005906020CDE9E8
S315080018A0000683E8B00069460F4800F0F3FA002204
S315080018B005213F2000F098FD3F2000F087FD00221B
S315080018C00521402000F090FD402000F07FFD07B084
S315080018D0F0BD000000640040B80000203038024027
S315080018E0000C0240006800400004024070470000F7
S315080018F010B50446006859498AB088421FD107AB1B
S315080019006A4600212046FFF764FD0098A0F500719D
S31508001910093903D107A9524805F0B2F80098A0F290
S31508001920012002280BD800984E4900EB400001EB35
S315080019308000A0F5C05007A90C3805F0A1F84A495F
S31508001940206888423CD107AB6A4600212046FFF74B
S3150800195040FD00994548332934D0342966D03529C5
S3150800196075D0A1F5007111392AD1BDF81C0000EE19
S31508001970100A4048F8EE400A9FED3D0A80EE801AAC
S3150800198080ED001ABDF81E1000EE901AF8EE600AF7
S3150800199080EE801A80ED011ABDF8201000EE901A2C
S315080019A0F8EE600A80EE801A80ED021ABDF8221061
S315080019B000EE901AF8EE600A80EE801A80ED031A9F
S315080019C00AB010BDBDF81C10C1F30A01A1F580616B
S315080019D001809DF81D10CA089DF81E1042EA4112A2
S315080019E0C2F30A02A2F5806242809DF81F20890987
S315080019F041EA82029DF8201042EA8122C2F30A02D5
S31508001A00A2F5806282804A089DF8211042EAC11236
S31508001A10C2F30A02A2F58062C280C1F30112827281
S31508001A208909C172BDF822108181C9E7BDF81C1069
S31508001A30C181BDF81E1001829DF8201081749DF8A1
S31508001A402110C174BDF822108182B9E7FFE7BDF8FD
S31508001A501C10A1F580610181B2E700000064004016
S31508001A60CC7300207875002000680040B67300200B
S31508001A700000C8421C71002070477047704700007C
S31508001A8070B5044690F82000012804D0606A40F436
S31508001A900020606218E0022084F8200020680168AF
S31508001AA021F00101016000F0F3FA05460EE000BFDF
S31508001AB000F0EEFA401B0A2808D9606A40F40030A4
S31508001AC06062052084F82000012070BD2068406807
S31508001AD0C007EDD1606270BD7047704770477047A8
S31508001AE07047704770472DE9F0410446876D00F04E
S31508001AF0CFFA064694F835000025022806D080203D
S31508001B00606584F834500120BDE8F08120680168DA
S31508001B1021F0160101602068416921F080014161C8
S31508001B20206C08B9A06C20B12068016821F0080172
S31508001B3001602068016821F0010101600CE000F0F5
S31508001B40A7FA801B052807D920206065032084F89A
S31508001B50350084F83450D7E720680068C007EED10E
S31508001B6094F85C103F208840B860012084F835005E
S31508001B7084F834500020C7E790F83510022903D0BE
S31508001B808021416501207047052180F835100068DD
S31508001B90016821F001010160002070472DE9F84332
S31508001BA004464FF00009CDF8009063484FF41651EB
S31508001BB0A56D0068B0FBF1F72E6894F85C10082054
S31508001BC000FA01F131420FD021680A6852070BD595
S31508001BD00A6822F004020A6094F85C108840A8603B
S31508001BE0606D40F00100606594F85C104FF00108E4
S31508001BF008FA01F0304208D021684969090604D577
S31508001C00A860606D40F00200606594F85C100420DE
S31508001C108840304208D021680968890704D5A86039
S31508001C20606D40F00400606594F85C1010208840F0
S31508001C30304218D021680968090714D5A8602068B9
S31508001C400168490304D50068000308D5A16C07E0BC
S31508001C500168C90503D4016821F008010160216CF7
S31508001C6009B12046884794F85C1020208840304205
S31508001C7031D021680968C9062DD5A86094F83500C1
S31508001C8005282068016806D0490347D5006800037F
S31508001C901DD4616C1CE021F01601016020684169C1
S31508001CA021F080014161206C08B9A06C20B1206840
S31508001CB0016821F00801016094F85C103F20884013
S31508001CC0A86084F8358084F83490216D1FE0E16BB4
S31508001CD009B120468847606D00282BD0606DC00783
S31508001CE014D0052084F835002068016821F0010128
S31508001CF001600098401C0090B84203D8206800682C
S31508001D00C007F6D184F8358084F83490E16C002950
S31508001D1010D001B02046BDE8F04308470168C90560
S31508001D20D5D4016821F01001016084F8358084F863
S31508001D303490CCE7BDE8F883D00000202DE9F041C7
S31508001D40044600F0A5F906465CB1022084F8350081
S31508001D50002584F834502068016821F001010160EB
S31508001D600DE00120BDE8F08100F092F9801B0528FE
S31508001D7005D920206065032084F83500F2E720683D
S31508001D800068C007F0D12268116820480140D4E9EC
S31508001D9001031843D4E903363343184363691843E8
S31508001DA0A3691843E3691843236A18430843616A19
S31508001DB0042903D1D4E90B1319430843106020689A
S31508001DC04069666A20F0070130460E430127042859
S31508001DD00CD1A06A0643E06A40B12046FFF734F901
S31508001DE020B14020606584F83570BAE720684661FE
S31508001DF02046FFF715F994F85C203F219140816051
S31508001E00656584F835700020ACE700003F8010F067
S31508001E1010B5184C102818D020281FD0012813D127
S31508001E2006F0E2F901280FD004F12001606A05F0F6
S31508001E3057FD206A002807D00F494FF080500860E8
S31508001E40BFF34F8FBFF36F8F10BD607840F001006E
S31508001E506070A07840F00100A07003E0207840F0A0
S31508001E6001002070E0780028EED0BDE8104004F0AC
S31508001E701DBC00001801002004ED00E0044910B55F
S31508001E800A68024202D00860FFF7C2FF10BD0000D0
S31508001E90143C01402DE9F84FDFF8BCA100220125CA
S31508001EA003264FF00F090AF1040BAAF1040E00BF2E
S31508001EB00B6805FA02F42340A34270D10F7907F0A4
S31508001EC00307012F01D0022F16D187684FEA42086F
S31508001ED006FA08FC27EA0C07D1F80CC00CFA08FC2D
S31508001EE04CEA070CC0F808C04768A7430C79C4F346
S31508001EF0001494403C4344600C79E443A4070AD098
S31508001F00C4684FEA420C06FA0CF7BC438F6807FA16
S31508001F100CF72743C7600C7904F00304022C12D18E
S31508001F20D40800EB840CDCF820405707FF0E09FAAA
S31508001F3007F824EA0804D1F8108008FA07F848EAEE
S31508001F400408CCF8208004684FEA420C06FA0CF71D
S31508001F50BC430F7907F0030707FA0CF72743076016
S31508001F604C6814F4403F70D03C4C276847F48047CF
S31508001F702760246822F0030704F480440094384C50
S31508001F8007EB040CDCF8084897074FEA177809FAB4
S31508001F9008F7BC43334FB84202D1002724E054E087
S31508001FA0314FB84201D101271EE0304FB84201D166
S31508001FB0022719E02E4FB84201D1032714E02D4F0E
S31508001FC0B84201D104270FE02B4FB84201D10527AB
S31508001FD00AE02A4FB84201D1062705E0284FB84241
S31508001FE001D1072700E0082707FA08F72743CCF8A6
S31508001FF00878DAF800405746D1F804C09C435FEAEF
S31508002000CC2C00D51C433C60DBF800405F46D1F879
S3150800201004C09C435FEA8C2C00D51C433C60DEF868
S3150800202000407746D1F804C09C435FEA8C3C00D553
S315080020301C433C60084F083F3C68D1F804C09C43E9
S315080020405FEACC3C00D51C433C60521C102AFFF4C6
S315080020502FAFBDE8F88F0000083C01404438024025
S31508002060003001400000024000040240000802401F
S31508002070000C024000100240001402400018024002
S31508002080001C02400AB1816170470904FBE70000A1
S3150800209001488068704700003000002070B50400D1
S315080020A025D094F83D00002520B984F83C502046F8
S315080020B000F0B8F8242084F83D002068016821F073
S315080020C0010101602068016841F40041016020684F
S315080020D0016821F40041016000F072FA4D4A616816
S315080020E0914201D84C4900E04C49884201D201206E
S315080020F070BD4B492368B0FBF1F15E6826F03F06D8
S315080021000E435E606368934206D94FF4967359434B
S315080021104FF47A73B1FBF3F12368491C1E6A26F063
S315080021203F06314319626168914210D84900401E42
S31508002130B0FBF1F2521CC2F30B02042A01D20420AE
S3150800214022E0B0FBF1F0401CC0F30B001CE0A268D3
S31508002150F2B301EBC10303EB0116431EB3FBF6F31F
S315080021605B1C43F480431B0549D092B301EBC102C3
S3150800217002EB0111401EB0FBF1F0401CC0F30B004E
S3150800218040F4804040F400402168CA694CF6FF7369
S315080021909A431043C861D4E90710014320680268CE
S315080021A022F0C00211430160D4E90301014320680B
S315080021B0826848F2FF339A4311438160D4E90501E6
S315080021C008432168CA6822F0FF021043C86001E08C
S315080021D00EE016E02068016841F0010101602564FF
S315080021E0202084F83D00256384F83E50002070BD09
S315080021F001EB4106431EB3FBF6F35B1CB3E7012074
S31508002200C2E701EB4101401EB0FBF1F0401CC0F3F0
S315080022100B00B7E7A086010080841E0000093D0078
S3150800222040420F00F0B587B0044614216846FEF711
S3150800223071F81D492068884233D11C48002401687A
S3150800224041F004010160016801F00401059101688B
S3150800225041F0800101600068122500F080000590B9
S315080022604FF40070CDE9000502AA0326042782E888
S31508002270D00069460E48FFF70DFE8020CDE900051F
S3150800228002AA694682E8D0000A48FFF703FE074813
S315080022901030016841F400010160006800F4000094
S315080022A0059007B0F0BD0000005C004030380240E1
S315080022B000080240001C0240024881680278114466
S315080022C081607047300000200B4810B5016841F462
S315080022D000710160016841F480610160016841F4A0
S315080022E080710160032000F09FF80F2000F006F8C7
S315080022F000F050F8002010BD003C024030B50546FD
S315080023001F4887B00024016841F002010160006897
S3150800231006A900F00200009001A800F031F904981F
S31508002320A8B100F04DF940001649174AB0FBF1F183
S315080023301648491E026040F2E732C0E90324C0E9A4
S315080023400114846100F00EFE040003D015E000F0CD
S3150800235037F9E9E70D4800F0DFFE04000DD11D202E
S3150800236000F034F8102D07D2002229461D2000F06F
S315080023703BF80748056000E0012407B0204630BD59
S315080023804038024040420F0000040040606C0020C4
S31508002390340000200C4882B0016841F48041016095
S315080023A0006800F4804000900748001F016841F06B
S315080023B0805101600068002200F0805000900F21D3
S315080023C0901E02B000F010B844380240002809DB1D
S315080023D000F01F02012191404009800000F1E02031
S315080023E0C0F8001170470000F0B40E4B1B680C468D
S315080023F0C3F30223C3F10705042D00D90425191DCB
S31508002400072901D2002300E0DB1E012606FA05F1A2
S31508002410491E214099409E40761E16403143F0BC25
S3150800242003F078BA0CED00E0064900F007020868E8
S315080024304FF6FF03184040EA0220034A104308609B
S31508002440704700000CED00E00000FA052DE9F047A2
S315080024500E46050065D0DFF81481D8F80000F7B2FB
S3150800246000F00700B04207D288F80070D8F80000DC
S3150800247000F00700B04254D128683D4C810712D5B8
S31508002480400703D5206840F4E0502060287800070C
S3150800249003D5206840F4604020602068A96820F0D1
S315080024A0F000084320602878C0072DD030496868B6
S315080024B00839012812D0022813D0032811D0096838
S315080024C0890700292DDA216821F0030101432160DB
S315080024D0FFF7DEFD814641F2883A0EE00968890376
S315080024E0EFE709688901ECE7FFF7D2FDA0EB0901E0
S315080024F0514502D90320BDE8F0872068696800F0D5
S315080025000C00B0EB810FEFD1D8F80010404601F06F
S315080025100701B14207D90770006800F00700B0420A
S3150800252001D00120E7E72878400705D52068E96843
S3150800253020F4E050084320602878000706D5206874
S31508002540296920F4604040EAC100206000F058F88C
S315080025502168084AC1F30311515CC840064908605E
S3150800256006480068FFF7CAFE0020C4E7003C0240A0
S31508002570083802401C860008D000002034000020DD
S315080025800F2202600C4A136803F0030343601368C2
S3150800259003F0F0038360136803F4E053C360126822
S315080025A04FF4E05303EAD20202610448006800F0DF
S315080025B0070008607047000008380240003C0240E7
S315080025C00448054900680968044AC1F38221515C38
S315080025D0C8407047D0000020083802402C86000802
S315080025E00448054900680968044AC1F34231515C48
S315080025F0C8407047D0000020083802402C860008E2
S31508002600154810B5006810F00C02144813D0144988
S31508002610042A0FD0082A0ED10F4C241F22682368DB
S3150800262002F03F025B0207D52068C0F38810A0FBC2
S31508002630010106E0084610BD2168C1F38811A1FB17
S3150800264000010023FDF71CFE2168C1F30141491C66
S315080026504900B0FBF1F010BD083802400024F40030
S31508002660001BB7002DE9F84F04006ED02078DFF87C
S315080026704C93C007A9F104054AD009F10400016882
S31508002680C1F38101012908D00068C0F3810002283E
S315080026900AD1D9F80000400206D52868800337D544
S315080026A060680028E1D033E06068B0F5803F10D05C
S315080026B0B0F5A02F286810D020F48030286028684C
S315080026C020F4802028606068A8B1FFF7E1FC064680
S315080026D00DE0286840F48030F4E740F48020286054
S315080026E0F7E700BFFFF7D4FC801B642873D8286877
S315080026F08003F7D50CE0FFF7CBFC064605E000BFE4
S31508002700FFF7C6FC801B6428F0D828688003F7D436
S315080027102078DFF8AC8280074FF0000A3ED5A7483C
S31508002720001D016811F00C0F08D00068C0F3810085
S3150800273002280BD1D9F80000400207D42868800780
S3150800274016D5E068012800D112E033E1E068B8B197
S315080027500120C8F80000FFF79BFC064605E000BF0D
S31508002760FFF796FC801B0228C0D828688007F7D593
S315080027702868216920F0F80040EAC10028600DE0C9
S31508002780C8F800A0FFF784FC064604E0FFF780FCC3
S31508002790801B02281FD828688007F7D420780007EE
S315080027A022D5864F87486169703771B1012101606A
S315080027B0FFF76EFC064604E0FFF76AFC801B02285A
S315080027C009D838688007F7D50EE0C0F800A0FFF7EB
S315080027D05FFC064605E082E0FFF75AFC801B0228EC
S315080027E07DD838688007F7D42078400768D5DFF8A1
S315080027F0CCB100270BF13C0BDBF80000C0000BD472
S31508002800DBF8001041F08051CBF80010DBF800002F
S31508002810012700F0805000906B4E3068C00510D438
S31508002820306840F480703060FFF732FC009005E0B5
S31508002830FFF72EFC0099401A022850D83068C005C8
S31508002840F6D55E4EA0686C3601280FD0052830688C
S3150800285010D020F001003060306820F004003060AD
S31508002860A068B8B1FFF714FC00900FE0306840F09C
S315080028700100F4E740F004003060F7E7FFF708FCD2
S315080028800099411A41F28830814266D8306880073B
S31508002890F4D50EE0FFF7FCFB009007E0FFF7F8FB26
S315080028A00099411A41F28830814256D8306880072B
S315080028B0F4D42FB1DBF8001021F08051CBF80010CA
S315080028C0A069C8B33D49091D0968C1F381010229F8
S315080028D04AD00228504607D0C8F8600000E03CE01D
S315080028E0FFF7D6FB04463BE04746C8F86000FFF70B
S315080028F0CFFB064605E000BFFFF7CAFB801B022890
S315080029002BD828688001F7D4D4E907010843A16ABF
S315080029102E4A490802EB0141626A41EA82110843DC
S3150800292094F82C1040EA0161C9F8001001203866B5
S31508002930FFF7AEFB044606E03EE000BFFFF7A8FB44
S31508002940001B022809D828688001F7D534E000BFA3
S31508002950FFF79EFB001B022802D90320BDE8F88F6B
S3150800296028688001F4D427E00128F7D0D9F80000B8
S31508002970E26900F4800191421CD1226A00F03F010D
S31508002980914217D147F6C071626A0140B1EB821FC6
S3150800299010D1A26A4FF0FF3300F4403103EB520224
S315080029A0B1EB024F06D194F82C1000F07060B0EB32
S315080029B0016F01D00120D1E70020CFE7043802409B
S315080029C000004742800E4742007000400000FFFFAB
S315080029D07047000038B5016804464A688868C043ED
S315080029E0430606D5C30704D1D3435B0601D4216C3D
S315080029F005E0830708D4D3431B0605D4616C01B0F0
S31508002A002046BDE830400847830603D5430601D56E
S31508002A10C30551D4D3439B064ED443060AD494F82F
S31508002A205130032B49D0636D43F004036365CB68CB
S31508002A308B680093830609D4636D43F001036365CD
S31508002A408B6800930B6823F040030B60C00506D41F
S31508002A50606D40F008006065206880680090606DD1
S31508002A60002829D02068416821F0E0014160012052
S31508002A7084F85100900701D4D00722D02068416815
S31508002A8021F003014160114DE06C40B10565E06C31
S31508002A90FFF772F818B1606D40F040006065A06CF1
S31508002AA0002809D00565A06CFFF766F8002803D052
S31508002AB0606D40F04000606538BDC8688868009061
S31508002AC038BD2046FFF784FF38BD0000CD4D00080D
S31508002AD070B5040009D0606A002540B125616561BA
S31508002AE0A56294F8510040B10CE0012070BD606801
S31508002AF0B0F5827FF4D0E561F2E784F850502046BD
S31508002B0000F044F8022084F851002068016821F09A
S31508002B1040010160A088218900F4827001F4044113
S31508002B200843A18901F400610843217C01F00201F0
S31508002B300843217D01F001010843218B01F400714E
S31508002B400843217F01F03801084394F8201001F06A
S31508002B5080010843218D01F400510843216808606B
S31508002B60A069042101EA104094F8241001F010012C
S31508002B700843216848602068C16921F40061C16181
S31508002B806565012084F85100002070BD2DE9F043E9
S31508002B9087B0064614216846FDF7BCFB38493068FD
S31508002BA0884269D137480025016841F4805101609F
S31508002BB0006800F48050059032481438016841F0E6
S31508002BC002010160016801F002010591016841F006
S31508002BD0010101600068022400F001000590182038
S31508002BE001274FF003084FF005098DE89103694660
S31508002BF02548FFF74FF980208DE891036946234859
S31508002C00FFF748F9234C22484FF0C0672060C4E913
S31508002C1001754FF48068C4E9035865617812A561A7
S31508002C20C4E9075020466562FFF788F808B1FEF741
S31508002C305FFAF464A663174C154860341830E4E864
S31508002C4002074020A4E82101C00244F81459A561EE
S31508002C50C4E907500F4865626030FFF76FF808B19E
S31508002C60FEF746FAB464002205212320A663FFF77F
S31508002C70BBFB2320FFF7AAFB07B0BDE8F0830000E3
S31508002C80003001404438024000040240000002407F
S31508002C9040640240A06B00202DE9F84F044690F8E6
S31508002CA0500000270A9E1D4692468B464FF00109A2
S31508002CB001280ED0012084F85000FFF7E9F9804674
S31508002CC094F85100616801280CD0B1F5827F07D1CC
S31508002CD002E00220BDE8F88FA16809B9042801D0EE
S31508002CE00227C2E0BBF1000F27D0BAF1000F24D0AB
S31508002CF01DB394F85100042802D0052084F8510029
S31508002D0000206065C4F838A0E587A587C4F830B008
S31508002D10E586A5862064606420680168490603D4B0
S31508002D20016841F040010160E068B0F5006F606835
S31508002D3005D0E8B3012D46D07FE0012795E008B11C
S31508002D40012D39D1206B21680088C860206B801C52
S31508002D502063E08E401EE0862EE0206881688907A1
S31508002D600FD5E18E69B1B9F1010F0AD1216B098836
S31508002D70C160206B801C2063E08E401EE0864FF009
S31508002D80000920688168C9070CD0E18F51B1C06875
S31508002D90A16B0880A06B801CA063E08F401EE087B3
S31508002DA04FF00109FFF774F9A0EB0800B04200E004
S31508002DB009E001D3701C50D1E08E0028CDD1E08FF8
S31508002DC00028CAD13FE0206B216800780873206B81
S31508002DD0401C2063E08E401EE0862EE02068816855
S31508002DE089070FD5E18E69B1B9F1010F0AD1216BB7
S31508002DF009780173206B401C2063E08E401EE08634
S31508002E004FF0000920688168C9070CD0E18F51B1DD
S31508002E10C068A16B0870A06B401CA063E08F401EC1
S31508002E20E0874FF00109FFF733F9A0EB0800B0423D
S31508002E3002D3701C01D010E07EB1E08E0028CDD1FF
S31508002E40E08F0028CAD142463146204601F0C6FF27
S31508002E5028B101272020606507E0032705E0A06860
S31508002E6018B92068C16880680090012084F851006C
S31508002E70002084F8500038462CE77047704710B594
S31508002E8090F83C20012A22D0012280F83C20CA680A
S31508002E908C6822F4407222434C6822F480622243F2
S31508002EA00C6822F4006222430C6922F48052224301
S31508002EB04C6922F400522243C969002322F4804255
S31508002EC00A4301684A6480F83C30002010BD02209D
S31508002ED010BD000070B590F83C20012A32D00124BC
S31508002EE080F83C40022280F83D2003685A689D68B5
S31508002EF022F070060A6832435A60134B02689A42F7
S31508002F0014D0B2F1804F11D0104B9A420ED0104B0C
S31508002F109A420BD00F4B9A4208D00F4B9A4205D0D3
S31508002F200E4B9A4202D00E4B9A4204D1496825F0BC
S31508002F3080031943916080F83D40002180F83C10D9
S31508002F40084670BD022070BD000001400004004024
S31508002F5000080040000C0040000401400040014009
S31508002F600018004010B5040003D094F83D0010B1D5
S31508002F7007E0012010BD002084F83C00204600F040
S31508002F801FF8022084F83D00211D206802F0C6F8CB
S31508002F90012084F8460084F83E0084F83F0084F84F
S31508002FA0400084F8410084F8420084F8430084F81D
S31508002FB0440084F8450084F83D00002010BD000058
S31508002FC008B5324A01683248914210D1016841F089
S31508002FD0010101600068002200F00100009005214F
S31508002FE01820FFF701FA1820FFF7F0F944E0B1F1CD
S31508002FF0804F19D0274A914221D1016841F0020138
S3150800300001600068002200F00200009005212B20D4
S31508003010FFF7EAF92B20FFF7D9F9002205212C2022
S31508003020FFF7E2F92C202DE01948001F016841F04E
S3150800303001010160006800F00100009008BD164A11
S3150800304091420ED1016841F4803101600068002286
S3150800305000F48030009005211820FFF7C5F91820E4
S3150800306010E00E4A9142E9D1016841F4003101604D
S31508003070006800F400300090002205211920FFF7AF
S31508003080B3F91920BDE80840FFF7A0B900000140D0
S315080030904438024000040140004001400044014019
S315080030A090F83D10012901D001207047022180F8CF
S315080030B03D1000681149884214D0B0F1804F11D0F4
S315080030C00F4988420ED00F4988420BD00E498842D4
S315080030D008D00E49884205D00D49884202D00D49CC
S315080030E0884204D1816801F00701062903D00168E6
S315080030F041F0010101600020704700000000014016
S315080031000004004000080040000C00400004014094
S31508003110004001400018004090F83D10012901D0F8
S3150800312001207047022180F83D100168CA6842F004
S315080031300102CA6000681149884214D0B0F1804F74
S3150800314011D00F4988420ED00E4988420BD00E493D
S31508003150884208D00D49884205D00D49884202D0D8
S315080031600C49884204D1816801F00701062903D079
S31508003170016841F00101016000207047000001402C
S315080031800004004000080040000C00400004014014
S31508003190004001400018004070B5044690F83C0015
S315080031A00025012817D0012684F83C60022084F8FF
S315080031B03D002068826822F0770222F47F4282600E
S315080031C00868502838D00DDC20284FD005DC90B38D
S315080031D0102811D14AE0022070BD302846D0402878
S315080031E00AD13BE060282FD070280DD0B0F5805F5B
S315080031F003D0B0F5005F12D0012584F83D600020A9
S3150800320084F83C00284670BDCB68D1E901212068C6
S3150800321001F0F5FF2068816841F0770109E0CB6885
S31508003220D1E90121206801F0EAFF2068816841F4AC
S3150800323080418160E1E719E0CA684968206802F0C0
S31508003240B3F85021206806E0CA684968206802F089
S31508003250BCF86021206801F0DCFFCEE7CA6849683F
S31508003260206802F0A1F840212068F4E722680146A8
S315080032701046F0E7704770B50446006801694FF0DC
S315080032800005C943890715D4C168C943890711D4FC
S31508003290E91E0161012020772068806980072046A1
S315080032A002D0FFF7E7FF04E000F0DAF8204600F066
S315080032B06CF9257720680169C943490717D4C1689D
S315080032C0C943490713D46FF004010161022020772E
S315080032D02068806910F4407F204602D0FFF7CAFFB5
S315080032E004E000F0BDF8204600F04FF92577206885
S315080032F00169C943090716D4C168C943090712D425
S315080033006FF008010161042020772068C0698007F2
S31508003310204602D0FFF7AEFF04E000F0A1F82046F1
S3150800332000F033F9257720680169C943C90617D41F
S31508003330C168C943C90613D46FF01001016108209A
S3150800334020772068C06910F4407F204602D0FFF736
S3150800335091FF04E000F084F8204600F016F925777E
S3150800336020680169C943C90708D1C168C943C907A3
S3150800337004D1891E0161204600F06CF920680169B4
S31508003380C943090609D4C168C943090605D46FF0BB
S31508003390800101612046FFF770FD20680169C94375
S315080033A0490609D4C168C943490605D46FF04001E6
S315080033B00161204600F058F920680169C943890669
S315080033C00BD4C168C943890607D46FF0200101618F
S315080033D02046BDE87040FFF751BD70BD10B586B0F8
S315080033E0044614216846FCF795FF2368174C1848CD
S315080033F002220121A34210D1036843F0100303609F
S315080034000068CDE9021200F0100005904802CDE9E7
S315080034100002049169460F4813E00F4CA34212D1EB
S31508003420036843F0200303600068CDE9021200F048
S31508003430200005904020CDE900020320049069464B
S315080034400648FEF727FD06B010BD00000000014043
S315080034503038024000100240004401400014024087
S31508003460704770B5044690F83C0000260D460128C2
S315080034700FD0012084F83C006AB1042A1DD0082A1E
S315080034802FD00C2A3FD00126002084F83C00304675
S3150800349070BD022070BD206801F0C4FE20688169F5
S315080034A041F0080181612068816921F00401816188
S315080034B0206881692A69114311E0206801F0E2FE5B
S315080034C02068816941F4006181612068816921F47D
S315080034D080618161206881692A6941EA02218161E6
S315080034E0D2E7206801F004FF2068C16941F00801AD
S315080034F0C1612068C16921F00401C1612068C16900
S315080035002A69114311E0206801F026FF2068C16985
S3150800351041F40061C1612068C16921F48061C1611B
S315080035202068C1692A6941EA0221C161ACE710B580
S31508003530040003D094F83D0010B107E0012010BD47
S31508003540002084F83C00204600F01EF8022084F88B
S315080035503D00211D206801F0E1FD012084F84600A8
S3150800356084F83E0084F83F0084F8400084F841005F
S3150800357084F8420084F8430084F8440084F845003F
S3150800358084F83D00002010BD7047704710B504460A
S31508003590022249B104290ED0082913D094F8410013
S315080035A0012816D0012010BD94F83E000128F9D153
S315080035B084F83E200FE094F83F000128F2D184F801
S315080035C03F2008E094F840000128EBD184F8402019
S315080035D001E084F841200122206801F003FE164923
S315080035E02068164A884201D0904203D1436C43F4BE
S315080035F0004343642068884213D0B0F1804F10D04E
S315080036000F4988420DD00F4988420AD00E49884290
S3150800361007D0904205D00D49884202D00C4988420D
S3150800362004D1816801F00701062903D0016841F039
S3150800363001010160002010BD0000014000040140A6
S315080036400004004000080040000C00400040014013
S315080036500018004000680349884201D1FEF72CBED5
S31508003660704700000004004070477047704700002C
S31508003670F8B5016804460868CA684B6910F00F0F68
S315080036804FF000055AD003F0010602F4907737434D
S3150800369065D0C10705D0D10503D5216C41F00101DC
S315080036A02164410705D5D90703D0216C41F00201F1
S315080036B02164810705D5D90703D0216C41F004019F
S315080036C02164010707D502F02001314303D0216C9C
S315080036D041F008012164216C00293BD0800604D5FD
S315080036E0900602D5204601F0B1FE20684069216C9B
S315080036F0C0F3801001F00801014320462BD001F0E9
S315080037007EFE20684069400621D52068143050E8BE
S31508003710001F21F0400140E80012002AF5D1A06BF5
S31508003720A8B16C490165A06BFEF726FA002811D0EE
S31508003730A06B016D01B0BDE8F040084783060ED5C1
S3150800374093060CD52046BDE8F84001F07FBE20461A
S31508003750FFF78CFFF8BDFFF789FF2564F8BD266BD8
S315080037602023012E79D1C60677D5D60675D50868E1
S31508003770486800904869400640D5A16B08684068CB
S315080037800004000CEAD0A28D8242E7D9E085C86918
S31508003790B0F5807F2DD020680C3050E8001F21F44A
S315080037A0807140E80012002AF5D12068143050E8EC
S315080037B0001F21F0010140E80012002AF5D1206817
S315080037C0143050E8001F21F0400140E80012002A9A
S315080037D0F5D184F83E30256320680C3050E8001F88
S315080037E021F0100140E80012002AF5D1A06BFEF77F
S315080037F07AF9A08DE18D401A81B229E0A08DE18D7C
S31508003800401A81B2E08D0028A8D00029A6D02068E9
S315080038100C3050E8002F22F4907240E80026002E63
S31508003820F5D12068143050E8002F22F0010240E854
S315080038300026002EF5D184F83E30256320680C302A
S3150800384050E8002F22F0100240E80023002BF5D1A3
S315080038502046FFF70AFFF8BDFFE705062BD5150634
S3150800386029D594F83D002128F5D1A068B0F5805FE8
S3150800387001D12069B0B1206A411C21622168007813
S315080038804860E08C401E0004000CE084E3D1206808
S31508003890C16821F08001C1602068C16841F040011B
S315080038A0C160D8E7206A0088C0F308004860206A2B
S315080038B0801C2062E5E74006CDD55006CBD5CA6800
S315080038C0204622F04002CA6084F83D3000F09DF997
S315080038D0C1E70000EF53000870B5040004D094F85F
S315080038E03D00002510B106E0012070BD84F83C506B
S315080038F0204600F023F8242084F83D002068C1689B
S3150800390021F40051C160204601F000FE20680169DB
S3150800391021F4904101612068416921F02A01416141
S315080039202068C16841F40051C1602564202084F8EC
S315080039303D0084F83E00002070BD00002DE9F04FE0
S3150800394087B0044614216846FCF7E4FCA348DFF870
S31508003950888214380322D4F800C0A04B022100251F
S31508003960071516044FF0070B4FF04009C44570D1F0
S31508003970D3F800C0AA464CF0100CC3F800C01B6868
S3150800398003F010030593036843F00203036003681A
S3150800399003F002030593036843F00103036000681C
S315080039A00DF1040C00F00100059080200090022023
S315080039B090468CE8210969468948FEF76BFA781023
S315080039C000900DF1040C02208CE82109694685480F
S315080039D0FEF760FADFF81482834940464FF0006B21
S315080039E0C8F80010C0E901B5C0E90357C8F8145073
S315080039F0C8F81850C8E90756C8F82450FEF79EF9C3
S31508003A0008B1FDF775FB794DC4F8388076486035FE
S31508003A10C8F838403030C5F80890C5E9000BC5E944
S31508003A2003A7C5F814A0C5F818A0C5E907A628462F
S31508003A30C5F824A0FEF782F908B1FDF759FB6563BE
S31508003A40002205212520AC63FEF7CEFC25205FE089
S31508003A50FFE7DFF89C81C4455FD1604BAA461B1F70
S31508003A60D3F800C04CF4802CC3F800C01B6803F4DC
S31508003A7080230593036843F004030360006800F09D
S31508003A80040005904FF440608DE82300CDE9032B30
S31508003A9069465848FEF7FEF9DFF850B156490BF16A
S31508003AA0C00B58464FF00068CBF80010C0E90185F6
S31508003AB0C0E90357CBF81450CBF81850CBE9075692
S31508003AC0CBF82450FEF73AF908B1FDF711FB4A483E
S31508003AD04A4DC4F838B03030CBF8384085E8010391
S31508003AE0C5E903A7C5F814A0C5F818A0C5E907A62F
S31508003AF02846C5F824A0FEF721F908B1FDF7F8FA1B
S31508003B006563002205212720AC63FEF76DFC27209C
S31508003B10FEF75CFC07B0BDE8F08FDFF8E480C4452B
S31508003B20F8D1D3F800C04CF0200CC3F800C01B68CD
S31508003B3003F020030593036843F04003036000681D
S31508003B4000F0400005904FF484408DE823000820DB
S31508003B50CDE9032069462B48FEF79CF9DFF89C80DF
S31508003B60214908F16008603940464FF0206BC8F8D3
S31508003B700010C0E901B5C0E90357C8F81450C8F8E1
S31508003B801850C8E90756BA46C8F82450FEF7D6F8BA
S31508003B9008B1FDF7ADFA194FC4F83880C037C8F830
S31508003BA03840C7E90295C7E904A5BD61C7E90756C4
S31508003BB00D487D621830C7E9000B3846FEF7BEF897
S31508003BC008B1FDF795FA6763002205214720BC6313
S31508003BD0FEF70AFC47209BE70010014044380240E4
S31508003BE0000402400000024088640240DC6E0020A7
S31508003BF0004800400008024028600240FC6F002090
S31508003C00001401400018024070477047FEE70000A4
S31508003C102DE9F04100262DED048B44F6206743E09C
S31508003C20254AA2F11005291D101DFCF711FF686928
S31508003C30FCF71BFD9FED218B53EC182BFCF723FC9F
S31508003C4005F1780441EC190B2068FCF70EFD53ECDE
S31508003C50192BFCF712FCFCF71BFD2060A869FCF782
S31508003C6004FD53EC182BFCF70EFC41EC190B6068AD
S31508003C70FCF7FBFC53EC192BFCF7FFFBFCF708FDE4
S31508003C806060E869FCF7F1FC53EC182BFCF7FBFBCA
S31508003C9041EC180BA068FCF7E8FC53EC182BFCF772
S31508003CA0ECFBFCF7F5FCA0603046761CB842B7DBA7
S31508003CB0BDEC048BBDE8F081047500202D431CEB98
S31508003CC0E2360A3F08B5072000E0642002F010FE3D
S31508003CD0FCF7A6FE0028F8D1714A0092A2F1100955
S31508003CE0101D09F104018346FCF7B2FEFFF790FFA9
S31508003CF04A46A2F14001A1F10C0002F085FCDFED75
S31508003D00690A9FED690A694A002109F1300000F045
S31508003D10C1FEA9F13402A2F10C0101F11800FCF769
S31508003D20D7FDA9F14007A7F1180597ED000AA5F1F7
S31508003D300C0685ED000AA5F1180886ED000A88ED3F
S31508003D40000A97ED010A002085ED010A86ED010AB1
S31508003D5088ED010A97ED020A85ED020A86ED020A48
S31508003D6088ED020A02F0FAFD04F0FCF9504C102125
S31508003D7060625048C161FEF7ABFE08B1FDF7B8F9BD
S31508003D804B4908223431A1F1080000F0A1FF0120B7
S31508003D90E0704FF0FF3A5146012003F005FC012878
S31508003DA0F9D12078400708D5207820F00400207043
S31508003DB03F4859463530FCF703FE607840070BD577
S31508003DC0607820F004006070354A09F10401103269
S31508003DD0A2F12A00FCF7AEFDA07840070CD5A07822
S31508003DE020F00400A070324800992A30FCF70AFF38
S31508003DF099ED040A02F0DEFC294A103AA2F14001C4
S31508003E00A1F10C0002F000FC96ED000ADFED2A2A6B
S31508003E1088ED000AD5ED000A9FED281AC6ED000ABE
S31508003E2060EEA21ADFED260A1D4840EE011A97ED4C
S31508003E30000A5C3840EE201AC5ED001A96ED013AE4
S31508003E4088ED013A95ED010A86ED010A20EE222A4F
S31508003E5097ED010A03EE012A00EE202A85ED012AD4
S31508003E6096ED023A88ED023A95ED020A86ED020AC7
S31508003E7060EE222A97ED020A43EE012A40EE202A36
S31508003E80C5ED022A90EC030A243000F07BFC044BB3
S31508003E90203B1A1F111FA1F1100002F0CFFA7AE792
S31508003EA0047500200080894500A08C4534890008E7
S31508003EB018010020486B00205AF8F63F5D896EBF4E
S31508003EC0D5A9183B2DE9F0470E4607460025DFF829
S31508003ED09491BFE0785DA52872D17819044605212A
S31508003EE001F0F2FC00286BD06078A17840EA01283E
S31508003EF005EB08000930B04245D8204608F109010B
S31508003F0001F0C4FC00285BD06079A17940EA012061
S31508003F1040F20221A0F20222884260D017DCB0F5F6
S31508003F20817F3FD009DC01281AD003281FD0052835
S31508003F302AD0B0EB610022D12DE0B0F5827F38D0CF
S31508003F40A0F5807005383CD0FC2818D140E0092A35
S31508003F5015D2DFE802F0144B525960676E75770088
S31508003F600B20804602463F48E11D8F3805E0202099
S31508003F70804602463B48E11D8338FCF7B2F905EB5B
S31508003F8008000930C5B265E00D208046024635486E
S31508003F90E11D6338F1E70420804602463148E11DF9
S31508003FA05638EAE70420804602462E48E11D523874
S31508003FB0E3E70220804602462A48E11D4E38DCE740
S31508003FC046E00120804602462648E11D4C38D4E7E3
S31508003FD01B20804602462348E11D4B38CDE71020BA
S31508003FE0804602461F48E11D3038C6E71020804645
S31508003FF002461C48E11D2038BFE7012080460246DC
S315080040001848E11D1038B8E70120804602461548D1
S31508004010E11D0F38B1E70120804602461148E11D2F
S315080040200E38AAE70720804602460E48E11D0D38DD
S31508004030A3E70620804602460A48E11D801F9CE742
S31508004040042000E0062080460246E11D484694E723
S315080040506D1CEDB2B542FFF43DAFBDE8F04701F087
S31508004060F5BB0000807300200F4810B50D490160AC
S315080040700321416000214FF410228160C0E9031238
S315080040804FF400124261017641768176C176017756
S315080040904177FDF710FB002803D0BDE81040FDF777
S315080040A027B810BD00640040FC6300200F4810B517
S315080040B00D4901600321416000214FF410228160FF
S315080040C0C0E903124FF40012426101764176817607
S315080040D0C17601774177FDF7EEFA002803D0BDE8EF
S315080040E01040FDF705B810BD0068004024640020A4
S315080040F0294808B5016841F480010160016801F4A6
S3150800410080010091016841F40011016000680022F5
S3150800411000F40010009005210C20FEF765F90C202C
S31508004120FEF754F9002205210E20FEF75DF90E2050
S31508004130FEF74CF9002205213920FEF755F93920FA
S31508004140FEF744F9002205213A20FEF74DF93A20F8
S31508004150FEF73CF9002205213B20FEF745F93B20F6
S31508004160FEF734F9002205214420FEF73DF94420E4
S31508004170FEF72CF9002205214520FEF735F94520E2
S31508004180FEF724F9002205214620FEF72DF9BDE8A1
S3150800419008404620FEF71AB93038024010B5A4B0D8
S315080041A01C221C496846FCF79CF80021684602F068
S315080041B0ABFB194C17491C2220611C3107A8FCF7D8
S315080041C090F8002107A802F09FFB1249A0601C2264
S315080041D038310EA8FCF785F800210EA802F094FBEA
S315080041E00C49E0601C22543115A8FCF77AF8002126
S315080041F015A802F089FB074920601C2270311CA80B
S31508004200FCF76FF800211CA802F07EFB606024B062
S3150800421010BD000090850008BC0000202DE9F04F75
S3150800422087B014216846FCF775F8714800250168BF
S3150800423041F002010160016801F00201059101687F
S3150800424041F040010160016801F0400105910168F3
S3150800425041F001010160016801F001010591016861
S3150800426041F008010160016801F008010591016843
S3150800427041F004010160016801F00401059101683B
S3150800428041F480710160016801F48071059101684B
S3150800429041F080010160016801F080010591016823
S315080042A041F020010160016801F0200105910168D3
S315080042B041F0100101600068DFF838A100F0100035
S315080042C00590012240215046FDF7DCFE4A4F4FF487
S315080042D0E056002231463846FDF7D4FEDFF81C9139
S315080042E0012210214846FDF7CDFEDFF814B1012260
S315080042F041F201015846FDF7C5FEC0204FF4881863
S31508004300CDE90008694602953E48FDF7C3FD01243C
S315080043104020CDE900040294694650460394FDF70F
S31508004320B9FDCDE9006469463846CDE90245FDF791
S31508004330B1FD08204FF40416CDE90006694602943B
S315080043405046FDF7A7FDCDE9004569464846029463
S31508004350FDF7A0FD1020CDE900040227CDE90247AC
S3150800436069464846FDF796FD3020CDE900066946C0
S3150800437002942548FDF78EFDCDE90048694650466A
S315080043800295FDF787FD2003CDE9000402946946EE
S3150800439058460394FDF77EFDCDE902470094694629
S315080043A058460194FDF776FD062100220846FEF7D9
S315080043B01BF80620FEF70AF8002205210920FEF759
S315080043C013F80920FEF702F8002205210A20FEF755
S315080043D00BF80A20FDF7FAFF002205211720FEF741
S315080043E003F81720FDF7F2FF07B0BDE8F08F0000CD
S315080043F03038024000180240001C0240000002400B
S315080044000004024000200240000802400D4810B592
S315080044100B4901600C49416000214FF480428160DC
S31508004420C0E9031241618161C1610162FDF736FE8F
S31508004430002803D0BDE81040FCF75ABE10BD0000A6
S31508004440005C0040F46A0020801A0600104810B587
S315080044500E4901604FF48271416000210222816099
S31508004460C0E9031201224261520282611022C0E9A8
S315080044700721416281620A21C162FEF729FB0028F1
S3150800448003D0BDE81040FCF733BE10BD0030014034
S31508004490486B002010B588B01C216846FBF73AFF28
S315080044A0144813490024C0E900144FF6FF71C0E907
S315080044B0024104618461FEF755FD08B1FCF718FE58
S315080044C00C48FFF734F808B1FCF712FE6020CDE976
S315080044D0000402940022694606480494FEF7C1FFC8
S315080044E008B1FCF705FE0348FEF778FF08B010BDD3
S315080044F000440140C86D002010B596B000240F9402
S3150800450010941194129413941C2108A81494FBF780
S3150800451001FF20216846FBF7FDFE2948274901606F
S31508004520A721C0E9011444F61F61C0E903144461D8
S315080045308461FEF717FD08B1FCF7DAFD4FF48050E9
S315080045400F900FA91E48FEF727FE08B1FCF7D0FD0D
S315080045501B48FEF7ECFF08B1FCF7CAFD139413A934
S3150800456017481494FEF7B6FC08B1FCF7C1FD6020A5
S3150800457008904FF4FA70CDE909040B940C940D9445
S31508004580002208A90E480E94FEF76BFF08B1FCF747
S31508004590AFFD00944FF40050CDE904400294019415
S315080045A00394694606480794FEF769FC08B1FCF7C8
S315080045B09FFD0348FEF712FF16B010BD000001402C
S315080045C0A86C002010B586B0002416480094019403
S315080045D00294039404944FF080410594016042F2DA
S315080045E0D001C0E901146321C0E903148461FEF710
S315080045F0B9FC08B1FCF77CFD4FF480500090694681
S315080046000848FEF7C9FD08B1FCF772FD049404A931
S3150800461004480594FEF75EFC002801D0FCF768FD07
S3150800462006B010BDF06C002010B586B000241748FF
S315080046300094019402940394049413490594016028
S31508004640A721C0E9011444F61F61C0E903144461B7
S315080046508461FEF787FC08B1FCF74AFD4FF48050E9
S31508004660009069460948FEF797FD08B1FCF740FD3A
S31508004670049404A905480594FEF72CFC002801D0EB
S31508004680FCF736FD06B010BD00040140386D002069
S315080046901FB5002110480091019102910D4A03911E
S315080046A0026044F29F12C0E901216322C0E9032196
S315080046B08161FEF757FC08B1FCF71AFD4FF48050EC
S315080046C0009069460448FEF767FD002801D0FCF70C
S315080046D00FFD1FBD00400140806D00200C4810B53D
S315080046E00A4901604FF4E1314160002181600C22E2
S315080046F0C160C0E904128161C161FFF7EDF80028C5
S3150800470003D0BDE81040FCF7F3BC10BD0010014013
S31508004710106E00200C4810B50A4901604FF4E131CB
S315080047204160002181600C22C160C0E904128161E8
S31508004730C161FFF7D1F8002803D0BDE81040FCF7A7
S31508004740D7BC10BD00480040546E00200C4810B578
S315080047500A4901604FF4E1314160002181600C2271
S31508004760C160C0E904128161C161FFF7B5F800288C
S3150800477003D0BDE81040FCF7BBBC10BD00140140D7
S31508004780986E0020F5EEC01AB0EE413AF0EE603AA7
S31508004790B0EE404AF1EE10FA00B5024609D1B5EE80
S315080047A0C02AF1EE10FA04D1F5EEC02AF1EE10FA9D
S315080047B078D021EEA10A02EE020A02EEA20A02F05F
S315080047C037F821EE805A62EE004A92ED011AD2EDD0
S315080047D0030A22EE800AD2ED002A21EE202AD2ED23
S315080047E0021A22EE811A5C4802EEE12A01EEA01AAC
S315080047F0F6EE001A52EEA21A40EEA01A60EE020A6F
S3150800480064EEA12A45EE610A40EE412A25EE010A28
S3150800481090ED041A04EEC20AB5EEC01AF1EE10FACB
S315080048202CDD90ED041AD0ED051A21EE222A9FED13
S315080048304B1A42EE011AC0ED051AD0ED041A21EE04
S31508004840A02AD0ED061A42EE011AC0ED061AD0EDDE
S31508004850041A21EE802AD0ED071A42EE011AC0ED9D
S31508004860071A90ED051A34EE014A90ED061A73EE12
S31508004870813A90ED071A33EE013A07E09FED381AB0
S3150800488080ED051A80ED061A80ED071A90ED031AD9
S3150800489001EE224A90ED031A41EE203AD0ED030AC2
S315080048A000EE803A9FED2F0AD2ED021A24EE002A76
S315080048B063EE802A23EE001A92EC020A92ED033A7E
S315080048C060EEC23A41EEE23A43EE413A73EE804A6E
S315080048D060EE023AC2ED004A41EE813A43EE623A90
S315080048E033EEA04A60EE223A20EE010A82ED014A32
S315080048F040EEC13A00EEA20A43EE023A01EEC20ABF
S3150800490073EEA13A70EE030A24EEA40AC2ED023A47
S31508004910C2ED030A04EE040A03EEA30A00EEA00A97
S3150800492001F086FFD2ED000A60EE800AC2ED000AA9
S31508004930D2ED010A60EE800AC2ED010AD2ED020A42
S3150800494060EE800AC2ED020AD2ED030A20EE800A62
S3150800495082ED030A00BD0000180100206F12833A99
S31508004960000000006F12033AFEE7FEE7A0B1D0EDA3
S31508004970101AC0ED111A90ED0F1A80ED101AC0ED3D
S31508004980060A80ED070A30EEC00A80ED0F0A0178A4
S3150800499029B101293BD078E09FED3D0A7047D0ED5B
S315080049A0010A60EE801AC0ED091AD0ED0A0A90EDE8
S315080049B0022A42EE000A30EE410AC0ED0A0A90EDDC
S315080049C00D2A80ED0E2A90ED0C2A80ED0D2A80ED39
S315080049D00C0A90ED031A21EE001A80ED0B1A90EDE1
S315080049E0050AF4EEC00AF1EE10FA09DCB1EE400A47
S315080049F0F4EEC00AF1EE10FA02D390ED0A0A01E0CD
S31508004A0080ED0A0A31EE800A30EE010A2BE070EEDC
S31508004A10410A90ED012A20EE822A80ED092AD0ED7E
S31508004A20020A60EE800AC0ED0A0AD0ED0D2A72EE7F
S31508004A30200AC0ED0E2AD0ED0C2AC0ED0D2AF0EEA4
S31508004A40002A01EE620A30EE210A80ED0C0A90ED8A
S31508004A50031A21EE000A80ED0B0A30EE800AD0ED2B
S31508004A60080A30EE200A80ED080AD0ED040AB4EEF2
S31508004A70E00AF1EE10FA06DCF1EE600AB4EEE00A9E
S31508004A80F1EE10FA01D2C0ED080A90ED080A704757
S31508004A9000000000002828D0002A26D0017092EDD8
S31508004AA0001A80ED011A92ED011A80ED021A92EDB4
S31508004AB0021A80ED031A80ED040A9FED0C0AC0ED78
S31508004AC0050A80ED0E0A80ED0D0A80ED0C0A80EDD0
S31508004AD0080A80ED0B0A80ED0A0A80ED090A80EDC6
S31508004AE0110A80ED100A80ED0F0A704700000000D9
S31508004AF010B53448354C2DED048BB0F902009FED06
S31508004B00329A00F52571B1F5A56F58D8FBF79CFDCB
S31508004B109FED2F0B53EC102BFBF727FD9FED2E0B6C
S31508004B2053EC102BFBF7AFFC41EC180BD4F8B00094
S31508004B30FBF79BFD53EC182BFBF7FEFBFBF7A8FDD9
S31508004B4000EE900AC4F8B00010EE900A244A04F168
S31508004B50B001904207DCF5EEC00AF1EE10FA02DD6C
S31508004B609FED200A06E010EE900A1F4A904203DBEA
S31508004B709FED1E0A81ED000A1D4894ED2C0A134983
S31508004B80D0ED020A1B4AB43170EE600A10EE900AA4
S31508004B90C4ED2D0A904205DD9FED170A30EEC00AD6
S31508004BA081ED000A0948D4ED2D0AB0EE490A6830AD
S31508004BB001F0BEFC84ED2B0ABDEC048B10BD84ED20
S31508004BC02B9AF9E7B673002000000000CC7300208A
S31508004BD00000000000A08440000000000000D03F54
S31508004BE000000C4300000C43000048430000484303
S31508004BF0DC740020000034430000B4432DE9F74F6D
S31508004C008E462F490868036823F0010303602D4880
S31508004C1003681C6824F001041C600B681C68E40720
S31508004C20F7D103E01C6824F001041C6003681C68C3
S31508004C30E407F7D1244F254DDFF88CC04C3FDFF849
S31508004C408CB00C68DFF88490B83D4FF40016A7F1D5
S31508004C50040AABF1600B644501D93E6009E04C4596
S31508004C6002D9CAF8006004E05C4501D9EE6000E0AC
S31508004C70AE60D0F800804FF00066E04501D93E608E
S31508004C8009E04B4502D9CAF8006004E05B4501D942
S31508004C90EE6000E0AE60C4F80CE00468009BE360D8
S31508004CA00B685A6003685A6009680A6842F001028C
S31508004CB00A600068016841F001010160BDE8FE8FE5
S31508004CC0A06B0020006C002058640240B8600240C7
S31508004CD02DE9F04F8346344803685C6844F00204C3
S31508004CE05C6003685C6844F001045C600068036803
S31508004CF043F0400303602D4803681C6824F0010450
S31508004D001C6003681C68E407F7D1294E294C284D16
S31508004D104C3EDFF8A0A0274FB83C4FF4001CA6F184
S31508004D200409AAF1600AAB4202D9C6F800C00BE032
S31508004D30BB4202D9C9F800C006E0534502D9C4F8F7
S31508004D400CC001E0C4F808C0DFF86CC0C3F808C09E
S31508004D500368D96001684A600068016841F010017B
S31508004D600160164801680B6823F001030B600168AF
S31508004D700B68DB07F7D14FF00063A94201D933600E
S31508004D8009E0B94202D9C9F8003004E0514501D911
S31508004D90E36000E0A360C1F808C00368C3F80CB07C
S31508004DA000684260BDE8F08F486B0020A06B0020C9
S31508004DB058640240B86002400C300140006C002084
S31508004DC00148FDF707BE0000486B002010B5806B50
S31508004DD00021C187C186FDF7FBFD10BD38B5044625
S31508004DE01248134B0068B0FBF3F04FF47A7358433C
S31508004DF000906068B0F5827F0DD10B4600920022C4
S31508004E008021204600F016F870B1606D40F0200051
S31508004E106065032038BD009830B1401E00902068B8
S31508004E208068C0430006F6D5002038BDD0000020B3
S31508004E3000366E012DE9F8431E469146884604461B
S31508004E40089DFDF725F9401B351AFDF721F9074698
S31508004E5025480068C0F3CB30684338E0701C37D06B
S31508004E60FDF716F9C01BA84203D215B1009860B326
S31508004E702CE02068416821F0E00141606068B0F5E7
S31508004E80827F0BD1A068B0F5004F02D0B0F5806FD5
S31508004E9004D12068016821F040010160A06AB0F5DC
S31508004EA0005F09D12068016821F40051016020687B
S31508004EB0016841F400510160012084F85100002086
S31508004EC084F850000320BDE8F8830025401E0090B2
S31508004ED02068816838EA010004D000214945BDD11F
S31508004EE00020F0E70121F9E7D000002040F6B830AD
S31508004EF001F0FEFC00F024F841F288360E4D0F4C06
S31508004F0077424FF0000800BFA4F82261A4F8247184
S31508004F10E87A03280CD001280AD0A4F82081A4F83E
S31508004F20268100BF02F068FA012001F0E1FCEBE7F8
S31508004F3001F0FCF9F6E70000B6730020787500204A
S31508004F4010B5234CB3EE040A2DED028BF3EE0E0AD0
S31508004F5084ED0C0A9FED1F0A9FED1F8A84ED0D0A4A
S31508004F6084ED0E0AC4ED0F0A84ED100A84ED110AC9
S31508004F70F2EE040AC4ED120A84ED130A84ED140A4B
S31508004F8004F13001F0EE480AB0EE480A01F12400B7
S31508004F90E83401F047FDA4F1AC01F0EE480AB0EEA2
S31508004FA0480A01F15C0001F03DFDA4F1A001F0EE14
S31508004FB0480AB0EE480A01F1940001F033FD0020DA
S31508004FC020876087A087E087BDEC028B10BD0000B4
S31508004FD0787500200000000000008046012001F0DE
S31508004FE087FCFBE710B5502080F31188BFF34F8F7D
S31508004FF0BFF36F8F03F00CF918B104494FF08050D6
S315080050000860002080F3118810BD000004ED00E060
S3150800501030B593B030216846FBF77CF914210CA80B
S31508005020FBF778F91D480025016841F080510160B9
S31508005030006800F0805011901948016841F48041D9
S3150800504001600068022400F480401190012000905D
S31508005050000401908001CDE9064006200890A820AA
S31508005060CDE9090407200B906846FDF7FBFA08B15D
S3150800507072B6FEE70CA90F2081E831004FF4A05064
S315080050800F904FF48050109005210CA8FDF7DEF91B
S31508005090002801D072B6FEE713B030BD4038024092
S315080050A0007000400548016841F470010160034939
S315080050B04FF00060803908607047000088ED00E016
S315080050C010B50448FEF7D7F8BDE810400248FEF7C9
S315080050D0D2B80000A86C0020806D002010B50448E6
S315080050E0FEF7C9F8BDE810400248FEF7C4B800004C
S315080050F0A86C0020C86D00200148FEF7BCB8000067
S31508005100606C00200148FEF7B6B80000386D002034
S315080051100148FEF7B0B80000386D0020F0B5026807
S31508005120254C264D264E274F274B4FF0804CA04244
S3150800513009D0604507D0A84205D0B04203D0B8428E
S3150800514001D0984204D122F0700E4A6842EA0E0253
S31508005150A0421BD0604519D0A84217D0B04215D03E
S31508005160B84213D0984211D0184DA8420ED0184D07
S31508005170A8420BD0174DA84208D0174DA84205D013
S31508005180164DA84202D0164DA84203D122F4407506
S31508005190CA682A434D6922F080022A4302608A6857
S315080051A0C2620A688262A04201D0984201D10969A6
S315080051B0016301214161F0BD000001400004004087
S315080051C000080040000C0040000401400040014077
S315080051D0004401400048014000180040001C0040FF
S315080051E00020004010B501F01F030121046A994010
S315080051F08C430462016A9A401143016210BD10B5DE
S31508005200846842EA032224F47F440A4322438260E4
S3150800521010BD826822F070020A4342F007018160DD
S3150800522070470000F0B5026A22F001020262036AC2
S3150800523042688469124E24F073050C682C4323F0E7
S3150800524002058B682B430D4DA84201D0B04205D10B
S3150800525023F00807CB683B4323F00403A84201D098
S31508005260B04205D14D6922F4407215438A692A4332
S3150800527042608461496841630362F0BD00000140F1
S3150800528000040140F0B5026A22F010020262026AC6
S31508005290436884690D6824F4E64444EA05248D6865
S315080052A022F0200242EA05120F4D104EA84201D004
S315080052B0B04206D1CF6822F0800242EA071222F0F5
S315080052C04002A84201D0B04207D14D6923F4406399
S315080052D043EA85038D6943EA850343608461496827
S315080052E081630262F0BD0000000001400004014035
S315080052F0F0B5026A22F480720262026A4368C469DF
S3150800530022F4007224F073050C68124E2C438D6843
S3150800531042EA05220E4DA84201D0B04206D1CF6816
S3150800532022F4006242EA072222F48062A84201D0EF
S31508005330B04207D14D6923F4405343EA05138D69FA
S3150800534043EA05134360C4614968C1630262F0BD5C
S31508005350000001400004014030B5026A22F4805280
S315080053600262046A4268C3690D6823F4E64343EAA5
S3150800537005238D6824F4005444EA0534084DA842F0
S3150800538002D0084DA84204D14D6922F4804242EA6F
S3150800539085124260C36149680164046230BD000039
S315080053A0000001400004014010B5036A046A24F0B5
S315080053B001040462846924F0F00444EA021423F028
S315080053C00A020A438461026210BD10B5036A23F01B
S315080053D0100303628369046A23F4704343EA0232C2
S315080053E024F0A00343EA01118261016210BD10B5E1
S315080053F0806B0021C185C184FEF738F910BD0168AC
S315080054000C3151E8002F22F4907241E80023002B5A
S31508005410F5D10168143151E8002F22F0010241E864
S315080054200023002BF5D1016B012909D101680C3144
S3150800543051E8002F22F0100241E80023002BF5D195
S31508005440202180F83E1000210163704708B590F8C6
S315080054503E10222901D0022008BD82684FF48053ED
S315080054609A4201D1016921B1816A9A421BD04AB197
S315080054700AE00268816A5268C2F308020A80816AF1
S31508005480891C08E0026972B10268526802F07F025C
S315080054900A70816A491C8162C18D491E0904090C7A
S315080054A0C18503D019E002685268F1E70168CA6845
S315080054B022F02002CA600168CA6822F48072CA60B3
S315080054C001684A6922F001024A61202180F83E10EB
S315080054D0016B012903D0FEF797FB002008BD0021C8
S315080054E0016301680C3151E8002F22F0100241E8EF
S315080054F00023002BF5D101680A68D20602D50A688E
S3150800550049680091818DFEF7B0F8E6E770B5044664
